:02000002D0002C
:1040000000400D0080690D00000006000C00050155
:084010000401FD08000000009E
:04401800F0660D0041
:1040200009480A49884208B505D0094A824202D0A7
:10403000121A02F0B5FA0748074A0021121A02F0D4
:10404000BDFA014808BD00BFC8E50320E4680D00C3
:104050003CE6032040E60320F1E7032070B5074E5D
:10406000074C01F001FAA41BA4080025A54200D1C9
:1040700070BD56F8043B98470135F7E7A4680D007A
:10408000C8680D0000F02AB808B500F02FF9BDE8A7
:10409000084001F0A1B900F0E7BE00F0E5BE00F075
:1040A000EBBE0078B0FA80F040097047012303703E
:1040B0007047F8B50C1E074616460CDA0A2A0AD1D4
:1040C0002D2100F07FFF61420546F2B2384600F034
:1040D00092FF2844F8BD21460025F6E738B50121B6
:1040E000072001F0E7FC0121032001F0E3FC00219F
:1040F000032001F0F0FC0121022001F0DBFC0C4C5C
:104100000C4D0121022001F0E6FC4FF47A7001F021
:1041100037F9204600F0C6FB2946204600F0AFFBE9
:1041200005F108012046BDE8384000F0A8BB00BFFB
:1041300048E6032000F40320F8B50E4F06460D466E
:10414000002401F08FFA315D102200F054FF072C9B
:1041500004D001F087FA394600F030FF0134082C12
:10416000EFD135B101F07EFABDE8F840024900F028
:1041700038BFF8BD04670D0008670D00000000009F
:1041800070B52DED028B224E82B004460025002230
:104190002146304600F08AFB30468DED010A00F0E2
:1041A00061FC9DED010A50B90135042DEFD101F0FC
:1041B00059FA184900F015FF9FED138B1CE0032DF1
:1041C000F5D0134800F034FC10EE100A01F042FE66
:1041D00041EC180B00212046FFF7AEFF01F042FA38
:1041E0000D4900F0EBFE01F03DFAB0EE480AF0EEAA
:1041F000680A022100F0E6FFB0EE480AF0EE680A15
:1042000002B0BDEC028B70BD000000000000F87F22
:1042100048E6032009670D0006670D0038B504461F
:1042200001F020FA054601F08DF80A2201462846E1
:10423000FFF73FFF01F016FA284900F0BFFE01F03A
:1042400011FA054601F072F80A2201462846FFF7E6
:1042500030FF01F007FA214900F0B0FE01F002FA48
:10426000054601F077F80A2201462846FFF721FFAC
:1042700001F0F8F91A4900F0A1FE01F0F3F9054642
:1042800001F030F80A2201462846FFF712FF01F03C
:10429000E9F9144900F092FE01F0E4F9054601F055
:1042A0002DF80A2201462846FFF703FF01F0DAF94C
:1042B0000C4900F083FE01F0D5F9054601F02AF81B
:1042C0000A2201462846FFF7F4FE34B101F0CAF98C
:1042D000BDE83840044900F084BE38BD19670D00C0
:1042E00004670D001B670D0008670D0010B51D4C1D
:1042F00000F00EFC2368C01A4EF65F2398422FD9B7
:1043000000F006FC20600120FFF788FF1648FFF749
:1043100037FF51EC100B02F0EDF807EE900AF4EEC7
:10432000677AF1EE10FA78BF104B114878BFC3EDF1
:10433000007AFFF725FF51EC100B02F0DBF807EED7
:10434000900AF4EE677AF1EE10FA7CBF074BC3EDEA
:10435000017A01F087F9BDE81040064900F041BE3E
:1043600010BD00BF44E6032000F40320C8E503208D
:1043700008F4032008670D00034B044801221A705B
:104380000421002200F061BA40E6032048E6032041
:1043900010B503682F2B044604D9074A00210A20D0
:1043A00000F0A6FC23681F2B83BF03F01F03034804
:1043B00023604FF0A04010BD014B0D0000030050E2
:1043C000F7B51B4C058823781A4EBFF35B8F13F0AB
:1043D000010F09D12046FFF764FE28B100F058FB19
:1043E00030602046FFF762FE33682D015B5D5F01A0
:1043F0002378BFF35B8FDB0709D40D48FFF751FE2D
:1044000028B100F045FB30600948FFF74FFE3368E4
:104410002B4401A85B7803F01F033B430193FFF794
:10442000B7FF019A01239340C0F80C3503B0F0BDEB
:1044300068E603206CE60320F7B51B4C058823785B
:104440001A4EBFF35B8F13F0010F09D12046FFF71F
:1044500028FE28B100F01CFB30602046FFF726FE46
:1044600033682D015B5D5F012378BFF35B8FDB0752
:1044700009D40D48FFF715FE28B100F009FB3060A4
:104480000948FFF713FE33682B4401A85B7803F05B
:104490001F033B430193FFF77BFF019A01239340E6
:1044A000C0F8083503B0F0BD68E603206CE60320D1
:1044B00010B5044601F0FCF82046FFF7BDFF208848
:1044C000012100F0EDFABDE8104001F0F3B8000062
:1044D0002DE9F341204D06882B78204FBFF35B8FE9
:1044E00013F0010F09D12846FFF7DBFD28B100F0DA
:1044F000CFFA38602846FFF7D9FD3B6836019C5D4E
:104500002B78BFF35B8FDB074FEA441809D41248BE
:10451000FFF7C7FD28B100F0BBFA38600E48FFF77F
:10452000C5FD3B68334401A85C7804F01F0444EAED
:1045300008040194FFF72CFFD0F81035019401A86E
:10454000FFF726FF019BD0F81005D84000F00100CE
:1045500002B0BDE8F08100BF68E603206CE60320EE
:1045600038B504460D462846002101F0A3FA2580FF
:10457000204638BD70B5054601F09AF8288800211C
:1045800000F08EFA01F096F87D24013C14F0FF044F
:104590002DD0022000F0B4FA2846FFF799FF00283A
:1045A000F3D001F085F82846FFF70AFF012128889B
:1045B00000F076FA01F07EF84FF4F07000F0A0FA07
:1045C00000F0AEFA00210646288800F069FA46207D
:1045D00000F096FA2846FFF77BFFB0FA80F43046E9
:1045E00000F0A6FA4FF4CD70640900F089FA204675
:1045F00070BD70B511F00105044618D000F090FAB6
:1046000005462046FFF7DCFE0121208800F048FA2D
:10461000012000F075FA2088002100F041FA2846B8
:1046200000F086FA3B20BDE8704000F069BA00F067
:1046300077FA06462046FFF7C3FE0121208800F0E6
:104640002FFA412000F05CFA2088294600F028FA71
:10465000304600F06DFA0520E5E738B5044600F075
:104660005FFA05462046FFF7ABFE2088012100F0E7
:1046700017FA012000F044FA0021208800F010FA17
:104680000D2000F03DFA2046FFF722FF04462846A1
:1046900000F04EFA2E2000F033FA204638BDF7B570
:1046A0000F46154608260124274214BF0121002188
:1046B00001906400FFF79DFF013E0198E4B2F3D141
:1046C00025B103B0BDE8F040FFF7F2BE03B0F0BD86
:1046D000F8B507460826002501243846FFF7BDFF38
:1046E00000B125436400013EE4B2F6D12846F8BD8E
:1046F00070B500220C4655210646FFF7D0FF651E17
:10470000073415F8011F00223046FFF7C8FFA54205
:10471000F7D170BD0022CC21FFF7C1BF0023438039
:104720008380C38003814381037370472DE9F04781
:1047300090F80C9004468846B9F1000F0DD0002087
:1047400060812073A31C08F1FF380A3413F8012B91
:1047500008F8012FA342F9D104E0FFF70BFF18B9C5
:1047600060812073BDE8F0874A46F0212046FFF7BC
:1047700096FF0126CA4635462046FFF76EFF0746DC
:104780002046FFF76AFF012F0FD1012827D1402DC6
:10479000D5D984F80A90B9F1000F01D10123237310
:1047A000A378002BCBD00120CCE7874204EB0A038F
:1047B0000CD1A27AAA420ED99A78164214BF0127C8
:1047C000002767B9082D00D8E572A9469A7822EA31
:1047D00006029A7009E00CBF01270027F1E704EBFD
:1047E0000A020127937833439370394620467600B6
:1047F000FFF7FFFE16F0FF0604BF0AF1010A5FFA99
:104800008AFA05F1010508BF0126BAF1070FEDB2DA
:10481000B2D9BCE730B50246014400208A4213D029
:1048200012F8015B082480EA050313F0010F4FEA38
:1048300050001CBF80F08C03D8B2631E13F0FF043D
:104840004FEA5505EFD1E9E730BD37B500234360A6
:104850008360C36003614361038340F2EE23827689
:10486000C36104460E200191FFF715FC054610B107
:104870000199FFF775FE2046256003B030BD38B5BD
:1048800000F110050C4600682946FFF74FFF031E94
:104890001DBF2B6823606B68236014BF01200020BC
:1048A000636038BD0068FFF739BF00002DE9F041B3
:1048B000837E04460D4616462BB90B781BB99FED37
:1048C000570ABDE8F0812068FFF754FEA37E002B55
:1048D0005CD0002E5AD12068FFF71CFF0022442133
:1048E0002068FFF7DCFEE06900F04AFD2068FFF772
:1048F00041FEA37E002B4ED0002E4CD12068FFF746
:1049000009FF20680022BE21FFF7C9FE2B78262B65
:1049100004D1002220681146FFF7C1FE261D04F1D4
:104920000D0837462068FFF7D3FE06F8010B464511
:10493000F8D108213846FFF76DFF237B2076984297
:104940006376BCD12B78262B47D029D8102B29D0C1
:10495000222BB4D1227A237902F06002202A36D0A9
:10496000402A37D012B923F00703237163792079E5
:1049700040EA032000B201F05BFA294B002201F06B
:10498000C1FA01F0B7FD00EE100A9AE72068294647
:10499000FFF7AEFEA2E720682946FFF7A9FEB0E7C1
:1049A000282BD6E7E37AA288102B08BFA37A4FEA18
:1049B000C20203BFC3F10C0322F00F029B1813B213
:1049C00008BF1BB200EE103ABAEECE0A79E723F028
:1049D0000303CAE723F00103C7E7A579284601F0DE
:1049E00027FA06466079C01007EE900AF8EEE77ADB
:1049F0000F4617EE900A01F02DFA0A4B002201F043
:104A000081FA2B0654BF084B084B002201F07AFABA
:104A100032463B4601F0C0F8B3E700BF0000C07F5C
:104A20000000B03F0000A03F0000F03F0000F0BFDA
:104A300008B510EE100A01F00DFA08A3D3E900231F
:104A400001F060FA044B002201F0A6F801F052FDDB
:104A500000EE100A08BD00BF00004040CDCCCCCC19
:104A6000CCCCFC3F027E407E131A5842584170471E
:104A700008B5024B1B689B68019308BD68020300E0
:104A800008B5024B1B68DB68019308BD6802030090
:104A900008B5024B1B681B68019308BD2C0203007C
:104AA00008B5024B1B689B68019308BD2C020300EC
:104AB00008B5024B1B68DB68019308BD2C0203009C
:104AC00008B5024B1B681B69019308BD2C0203004B
:104AD00008B5024B1B681B6A019308BD2C0203003A
:104AE00008B5024B1B685B6A019308BD2C020300EA
:104AF00008B5024B1B685B68019308BD18020300F0
:104B000008B5024B1B68DB68019308BD180203005F
:104B100008B5024B1B685B69019308BD18020300CE
:104B200008B5024B1B689B6B019308BD180203007C
:104B300008B5024B1B68DB6B019308BD180203002C
:104B400008B5024B1B689B6D019308BD180203005A
:104B500008B5024B1B685B6E019308BD1802030089
:104B600008B5024B1B685B6C019308BD480203004B
:104B700008B5024B1B685B69019308BD6402030022
:104B800008B5024B1B681B68019308BD3C0203007B
:104B900008B5024B1B68DB68019308BD3C020300AB
:104BA00008B5024B1B681B69019308BD3C0203005A
:104BB00008B5024B1B685B69019308BD3C0203000A
:104BC00008B5024B1B689B69019308BD3C020300BA
:104BD00008B5024B1B68DB69019308BD3C0203006A
:104BE00008B5024B1B681B6A019308BD3C02030019
:104BF00008B5024B1B689B6A019308BD3C02030089
:104C000008B5024B1B681B6A019308BD280203000C
:104C100008B5024B1B685B6A019308BD28020300BC
:104C200008B5024B1B689B6A019308BD280203006C
:104C300008B5024B1B68DB6A019308BD280203001C
:104C400008B5024B1B681B6B019308BD28020300CB
:104C500008B5024B1B685B6B019308BD280203007B
:104C600008B5024B1B681B6C019308BD28020300AA
:104C700008B5024B1B68DB69019308BD30020300D5
:104C800008B5024B1B681B6A019308BD3002030084
:104C900008B5024B1B681B68019308BD4C0203005A
:104CA00008B5024B1B681B69019308BD4C02030049
:104CB00008B5024B1B685B69019308BD4C020300F9
:104CC00008B5024B1B689B69019308BD4C020300A9
:104CD00008B5024B1B68DB69019308BD4C02030059
:104CE00008B5024B1B681B6A019308BD4C02030008
:104CF00008B5024B1B685B6B019308BD60020300A3
:104D000008B5024B1B681B68019308BD2002030015
:104D100008B5024B1B685B68019308BD20020300C5
:104D200008B5024B1B685B69019308BD20020300B4
:104D300008B5024B1B689B6D019308BD2002030060
:104D400008B5034B1B68D3F88830019308BD0000F9
:104D50002002030008B5034B1B68D3F8943001937D
:104D600008BD00002002030008B5024B1B685B6809
:104D7000019308BD4002030008B5024B1B689B6805
:104D8000019308BD4002030008B5024B1B68DB68B5
:104D9000019308BD4002030008B5024B1B681B6964
:104DA000019308BD4002030008B5024B1B685B6914
:104DB000019308BD4002030008B5024B1B689B69C4
:104DC000019308BD4002030008B5024B1B68DB6974
:104DD000019308BD4002030008B5024B1B681B6A23
:104DE000019308BD4002030008B5024B1B681B6B12
:104DF000019308BD4002030008B5024B1B685B6BC2
:104E0000019308BD4002030008B5024B1B681B6CF0
:104E1000019308BD4002030008B5024B1B685B6CA0
:104E2000019308BD4002030008B5024B1B689B6854
:104E3000019308BD4402030008B5024B1B685B697F
:104E4000019308BD4402030008B5024B1B681B6BAD
:104E5000019308BD4402030008B5024B1B68DB6BDD
:104E6000019308BD4402030008B5024B1B681B6890
:104E7000019308BD1C02030008B5024B1B685B6868
:104E8000019308BD1C02030008B5024B1B685B6C54
:104E9000019308BD1C02030008B5024B1B68DB6CC4
:104EA000019308BD1C020300002240681146FFF771
:104EB00093BF002240681146FFF79EBF4068002262
:104EC000FFF792BF4068002281F00101FFF77CBF2D
:104ED000002340681A461946FFF76EBF002340685A
:104EE0001A461946FFF760BF002240681146FFF7D7
:104EF00053BF002240681146FFF73EBF40680022C2
:104F00000221FFF741BF002340681A46FFF72CBF7C
:104F1000024B03225A60024A1A60704770E603206F
:104F200028670D0010B5044608462170FFF7A0FE63
:104F300000236360204610BD054B02221A60054B1A
:104F4000054A9A600020186098809871FFF7E0BECB
:104F500084E6032078E603200000FFFF02480023D8
:104F60000360FFF7FDBD00BF88E60320F8B50646E5
:104F70000D468F180024BD420CD0336815F8011B74
:104F80009B6830469847031E01DB1C44F3E7002C66
:104F900008BF1C462046F8BD13B50446084659B163
:104FA000019101F037FB23680199DB680246204636
:104FB00002B0BDE81040184702B010BD08B5FFF7B9
:104FC000EBFF08BD03689B68184738B50D210546FF
:104FD000FFF7F8FF0A2104462846FFF7F3FF2044B5
:104FE00038BD38B50546FFF7D7FF04462846FFF71A
:104FF000ECFF204438BD30B58BB000238DF8243051
:10500000012A98BF0A2209AC0D46B1FBF2F101FB5F
:10501000125303F0FF03092B94BF30333733DBB255
:10502000AA4204F8013DEFD92146FFF7B5FF0BB0C6
:1050300030BD00002DE9F74F55EC104B06460F46EA
:1050400010EE102A10EE100A2B46294601F0F4F952
:1050500040B153493046FFF79FFF8246504603B0A8
:10506000BDE8F08F25F000494E4B4FF0FF3220464F
:10507000494601F0E1F948B94A4B4FF0FF3220466A
:10508000494601F0BBF908B94749E3E7474B4FF000
:1050900060422046294601F0C5F908B14449D9E7E4
:1050A000444B4FF060422046294601F09DF900280C
:1050B000F4D1002200232046294601F095F9D0B111
:1050C0002D213046FFF77EFF05F1004382461D4645
:1050D0003949DFF8EC904FF0000B00204FF000084A
:1050E0005FFA8BF39F4208D942464B4601F034F8F1
:1050F0000BF1010BF4E78246EAE722462B4600F06B
:105100004BFD0D46044601F0D5F9804600F080FEC7
:1051100002460B462046294600F03CFD0A22044682
:105120000D4630464146FFF766FF824427B12349CA
:105130003046FFF731FF8244DFF884904FF00008DB
:10514000013FFFB2FF2F89D042464B4620462946F9
:1051500000F0D8FE04460D4601F084F9B0F1000BD2
:105160001ADA2D213046FFF72DFFCBF1000103465F
:105170000A2230460193FFF73EFF019B1844824408
:10518000584600F055FE02460B462046294600F0E0
:1051900001FD04460D46D3E759460023E8E700BF6A
:1051A0005C670D00FFFFEF7F60670D00FFFFEF41C1
:1051B00064670D00FFFFEFC10000E03F68670D006E
:1051C0000000244038B5C9B20546FFF733FF044656
:1051D0002846FFF7FAFE204438BD0000014B024A82
:1051E0001A6070478CE603206A670D002DE9F041D4
:1051F000154ADFF86080D2E90032C01842EB0101A5
:10520000124AD2E90032C61841EB0207D8E900235E
:10521000BB4208BFB2428CB013D003A96846CDE9A7
:105220000067FFF739FE089B094D03F26C7303AC6E
:1052300008930FCC0FC50FCC0FC5C8E900672368D2
:105240002B600CB0BDE8F081C0E60320B8E6032077
:1052500094E60320C8E6032008B50020FFF7F4FD1C
:1052600028B1FFF7E9FD80F00100C0B208BD0120C0
:10527000FCE7000008B5FFF7B9FF024B18690130E1
:1052800008BD00BF94E6032010B50020FFF758FCCE
:105290000446A0B9FFF734FD012810D12046FFF7DE
:1052A00047FD60B9FFF7D8FF10B9FFF7BDFDF9E77B
:1052B000FFF7D2FFBDE810400020FFF741BC2046B9
:1052C00010BD1FB5FFF7E0FF10220021684601F076
:1052D00075F900216846FFF73BFC009805B05DF8C2
:1052E00004FB000008B5FFF7ECFFC117FFF77EFFD6
:1052F000014B986808BD00BF94E6032008B5FFF78E
:10530000E0FFC117FFF772FF014B586808BD00BFEF
:1053100094E6032008B5FFF7D4FFC117FFF766FF37
:10532000014B186808BD00BF94E6032008B5FFF7DD
:10533000C8FFC117FFF75AFF014BD86808BD00BF6F
:1053400094E6032008B5FFF7BCFFBDE80840C1178D
:10535000FFF790BF08B5FFF7B4FFC117FFF746FF8F
:10536000014B586908BD00BF94E60320024B1A6840
:10537000024B1A60704700BFD0E5032090E603207F
:105380000021FFF7CDBC0000014B00229A6070475E
:10539000D0E60320014B1860704700BFD4E503201E
:1053A00008B50B4B43B100F05DF903681B699847E2
:1053B000002801DDAFF30080064B43B100F0D0F9C7
:1053C00003681B699847002801DDAFF3008008BD22
:1053D000000000000000000008B5FFF7E1FFFFF744
:1053E00097FB014B186008BD3CE703200548064ABF
:1053F000064908B5121A01F0D3F8054B054A1A60A0
:1054000008BD00BF00F4032014F40320D0680D0091
:1054100010F403201E1C279A07B5002300931A4698
:105420006FF07701FFF796FC03B05DF804FB000016
:1054300007B543880A2B08D0502B0BD1094B1B68AA
:105440004BB103B05DF804EB1847FFF7E5FF03B07D
:105450005DF804FB002300931A466FF07701FFF715
:1054600079FCF4E7E4E6032010B512480021FFF7C9
:105470000BFD114B1A68114B9A42114B0CBF0122C4
:1054800000221A7001D0FFF7B1FFFFF731FB04468D
:1054900001F09CF80B4B13B12046AFF300800021C4
:1054A0000848FFF7D9FCBDE8104007480021FFF786
:1054B00047BC00BF95530D0010F403201E1C279A13
:1054C000E0E603200000000031540D00704710B5E5
:1054D0001821044600F056FB204610BDF0B5037DB0
:1054E000062B8DB00E4600F104074FF0000412D0D9
:1054F00000F1080515F8011D0A223046FFF77BFD73
:10550000AF42044419D0002CF4D02E213046FFF7CE
:1055100059FD0444EEE72F236A4639460A208DF8E8
:105520000040FFF725FB684601F074F83368024637
:10553000DB68694630469847044620460DB0F0BD0A
:1055400010B5054B0446112240F8043B002101F040
:1055500035F8204610BD00BF94670D000346074A8A
:1055600010B543F8042B01F1100251F8044B43F835
:10557000044B9142F9D10A781A7010BD94670D005E
:1055800010B59DF8084044EA032343EA024242EA88
:10559000016104234160037510BD13B5CB780093FE
:1055A0008B784A780978FFF7EBFF02B010BD4174A1
:1055B00070477047704708B50021007CFFF780FBFB
:1055C00040EAE07008BD08B50121007CFFF778FBD8
:1055D00040EAE07008BD08B5007CFFF769FB20EAEF
:1055E000E07008BD08B5007CFFF75AFB20EAE070C8
:1055F00008BD13B50446007C0191FFF759FB002854
:10560000019901DC607C20B1207CFFF761FB20EA7E
:10561000E07002B010BD007CFFF762BB10B5142132
:10562000044600F0AFFA204610BD000010B54FF45C
:105630007A73044608460021C4E90113044B236031
:105640000123207463741146FFF722FB204610BD2E
:10565000A8670D0010B514220446002100F0AEFF2B
:10566000204610BD10B50F4C88B003A8FFF7F2FF1D
:105670002178BFF35B8F11F001010FD1204601911A
:10568000FEF70FFD019948B103AA0748FFF7CEFFC7
:105690002046FEF70BFD054800F07CFF024808B0ED
:1056A00010BD00BFE8E60320ECE60320B3550D0073
:1056B000FFF716BAFFF70CBA70474174704770478E
:1056C00008B5007CFFF794FA20EAE07008BD08B541
:1056D000007CFFF765FA20EAE07008BD08B5007CA1
:1056E000FFF76EFA40EAE07008BD08B5007CFFF7EE
:1056F0005FFA40EAE07008BD007CFFF769BA37B591
:10570000457C04462DB1207C03B0BDE83040FFF756
:105710003FBA007C0191FFF76BFA00280199F2DC97
:10572000284603B030BD10B51421044600F02AFA13
:10573000204610BD10B54FF0000C04460846114637
:105740004FF47A72C4E901C2044A22600122207433
:1057500062741A46FFF714FA204610BDD8670D0090
:10576000F7B51A4C26684EB98420FEF794FC05461E
:1057700018B18422314600F021FF2560144D2F68B6
:105780004FB98420FEF787FC064618B184223946BB
:1057900000F014FF2E600F4E3178BFF35B8F11F0D5
:1057A000010110D130460191FEF77BFC019950B107
:1057B0002B6822680848FFF7BDFF3046FEF776FCED
:1057C000064800F0E7FE044803B0F0BD04E70320FC
:1057D00008E7032000E703200CE70320BF560D0075
:1057E0007047F8B5064615460C468F18BC4206D0E1
:1057F000336814F8011B9B6830469847F6E7284643
:10580000F8BD007C0022FFF7FBB9007C0021FFF708
:10581000FFB9007C0021FFF703BA007C0021FFF7ED
:1058200007BA007C0021FFF70BBA10B5142104461B
:1058300000F0A8F9204610BD10B54FF47A73044665
:1058400008460021C4E90113034B2360207411466C
:10585000FFF706FA204610BD08680D0000224068D8
:105860001146FFF799BA002240681146FFF7B4BA13
:10587000002240681146FFF7BFBA40680022FFF7D8
:10588000B3BA4068002281F00101FFF79DBA0023FE
:1058900040681A461946FFF78FBA002340681A4637
:1058A0001946FFF781BA002240681146FFF764BA33
:1058B000406800220221FFF767BA002340681A46B9
:1058C000FFF752BA024B04225A60024A1A6070472C
:1058D00020E7032030680D00002340681A46FFF7D8
:1058E00043BA406800220221FFF74EBA0022406806
:1058F0001146FFF741BA002240681146FFF74CBA43
:10590000002340681A461946FFF74EBA0023406844
:105910001A461946FFF750BA40680021FFF774BADB
:1059200040680021FFF778BA4068002281F0010149
:10593000FFF74ABA40680022FFF756BA00224068D3
:105940001146FFF759BA002240681146FFF744BAE2
:105950002DE9F043002495B016460D460746FFF7A3
:10596000EFFD214618220EA8009400F027FE4023E8
:10597000CDE90C3421466B460CAA3046FFF780F87F
:105980000446002846D1024601216868FFF704FA60
:105990000221804622466868FFF7FEF9009E814694
:1059A0002146002E36D0002934D17368022B03D053
:1059B0000A2B0BD0F669F4E7B8F1000F04D0716937
:1059C00038460431FFF7E9FD4146F3E7B9F1000F2E
:1059D00001D14946EEE77469102201A800F0EEFDFE
:1059E00006238DF8143001AD04F10803183418684B
:1059F00059682A4603C20833A3421546F7D101A9C4
:105A000006A807ADFFF7AAFD0FCD3C1D0FC42B68FC
:105A10002370DEE70098FFF72BF8384615B0BDE895
:105A2000F0830000024B034A1A6000225A6070475C
:105A300028E703206C680D00232813B502D9002045
:105A400002B010BDA0F10B03022B1AD8174C21781D
:105A5000BFF35B8F11F001010BD120460191FEF7DE
:105A600020FB019928B11248FFF75CFA2046FEF7A7
:105A70001DFB0F4B1878FFF703F90028DFD1012039
:105A8000DEE7012809D800F059F80021007CFFF773
:105A9000DFF880F00100C0B2D2E709380128EED863
:105AA000FFF75EFE007CFFF79BF8F2E730E703208C
:105AB00034E70320232838B504460D460AD8FF29C9
:105AC00008D0FFF7B9FF28B129462046BDE8384085
:105AD000FEF7E6BF38BD38B504460D46FEF7E8FFD1
:105AE000FF2810D0062804D84D2323FA00F0C3075E
:105AF00009D42046FFF7A0FF28B129462046BDE87B
:105B00003840FEF7DDBF38BD7047000038B50023D0
:105B100020254380142304460380856005610649DF
:105B2000284600F031F804496060284600F02CF85F
:105B3000E060204638BD00BFA0680D0030B50E4DB6
:105B40002978BFF35B8F11F0010487B011D128468B
:105B5000FEF7A7FA68B101A8FFF7D8FF01AA21460E
:105B60000648FFF769FE2846FEF7A0FA044800F051
:105B700011FD024807B030BD40E7032044E7032091
:105B8000095B0D00FEF78BBAFEF787BA81F0004182
:105B900002E000BF83F0004330B54FEA41044FEA12
:105BA000430594EA050F08BF90EA020F1FBF54EAAD
:105BB000000C55EA020C7FEA645C7FEA655C00F049
:105BC000E2804FEA5454D4EB5555B8BF6D420CDD1A
:105BD0002C4480EA020281EA030382EA000083EA9D
:105BE000010180EA020281EA0303362D88BF30BD3D
:105BF00011F0004F4FEA01314FF4801C4CEA113193
:105C000002D0404261EB410113F0004F4FEA0333F1
:105C10004CEA133302D0524263EB430394EA050F7C
:105C200000F0A780A4F10104D5F1200E0DDB02FAEB
:105C30000EFC22FA05F2801841F1000103FA0EF27F
:105C4000801843FA05F359410EE0A5F120050EF145
:105C5000200E012A03FA0EFC28BF4CF0020C43FA76
:105C600005F3C01851EBE37101F0004507D54FF083
:105C7000000EDCF1000C7EEB00006EEB0101B1F5D3
:105C8000801F1BD3B1F5001F0CD349085FEA300019
:105C90004FEA3C0C04F101044FEA445212F5800F24
:105CA00080F09A80BCF1004F08BF5FEA500C50F1C1
:105CB000000041EB045141EA050130BD5FEA4C0CA4
:105CC000404141EB0101013C28BFB1F5801FE9D201
:105CD00091F0000F04BF01460020B1FA81F308BF24
:105CE0002033A3F10B03B3F120020CDA0C3208DDF0
:105CF00002F1140CC2F10C0201FA0CF021FA02F1CB
:105D00000CE002F11402D8BFC2F1200C01FA02F13A
:105D100020FA0CFCDCBF41EA0C019040E41AA2BF5F
:105D200001EB0451294330BD6FEA04041F3C1CDA27
:105D30000C340EDC04F11404C4F1200220FA04F047
:105D400001FA02F340EA030021FA04F345EA0301F1
:105D500030BDC4F10C04C4F1200220FA02F001FAB3
:105D600004F340EA0300294630BD21FA04F0294635
:105D700030BD94F0000F83F4801306BF81F48011CE
:105D80000134013D4EE77FEA645C18BF7FEA655C41
:105D900029D094EA050F08BF90EA020F05D054EA13
:105DA000000C04BF1946104630BD91EA030F1EBF18
:105DB0000021002030BD5FEA545C05D1400049411C
:105DC00028BF41F0004130BD14F580043CBF01F50F
:105DD000801130BD01F0004545F0FE4141F47001F5
:105DE0004FF0000030BD7FEA645C1ABF19461046D0
:105DF0007FEA655C1CBF0B46024650EA013406BFD1
:105E000052EA033591EA030F41F4002130BD00BF8F
:105E100090F0000F04BF0021704730B54FF480644C
:105E200004F132044FF000054FF0000150E700BFCD
:105E300090F0000F04BF0021704730B54FF480642C
:105E400004F1320410F0004548BF40424FF0000119
:105E50003EE700BF42004FEAE2014FEA31014FEA5C
:105E600002701FBF12F07F4393F07F4F81F06051AB
:105E7000704732F07F4208BF704793F07F4F04BFF6
:105E800041F40021704730B54FF4607401F00045D3
:105E900021F000411CE700BF50EA010208BF704733
:105EA00030B54FF000050AE050EA010208BF704724
:105EB00030B511F0004502D5404261EB41014FF48D
:105EC000806404F132045FEA915C3FF4D8AE4FF095
:105ED00003025FEADC0C18BF03325FEADC0C18BF78
:105EE000033202EBDC02C2F1200300FA03FC20FAC9
:105EF00002F001FA03FE40EA0E0021FA02F1144416
:105F0000BDE600BF70B54FF0FF0C4CF4E06C1CEA2E
:105F100011541DBF1CEA135594EA0C0F95EA0C0F9F
:105F200000F0DEF82C4481EA030621EA4C5123EA12
:105F30004C5350EA013518BF52EA033541F4801141
:105F400043F4801338D0A0FB02CE4FF00005E1FBF4
:105F500002E506F00042E0FB03E54FF00006E1FB3E
:105F600003569CF0000F18BF4EF0010EA4F1FF0481
:105F7000B6F5007F64F5407404D25FEA4E0E6D41C1
:105F800046EB060642EAC62141EA55514FEAC520D2
:105F900040EA5E504FEACE2EB4F1FD0C88BFBCF54E
:105FA000E06F1ED8BEF1004F08BF5FEA500E50F1FF
:105FB000000041EB045170BD06F0004646EA0101C5
:105FC00040EA020081EA0301B4EB5C04C2BFD4EBF7
:105FD0000C0541EA045170BD41F480114FF0000EF0
:105FE000013C00F3AB8014F1360FDEBF002001F05E
:105FF000004170BDC4F10004203C35DA0C341BDCD8
:1060000004F11404C4F1200500FA05F320FA04F0A9
:1060100001FA05F240EA020001F0004221F00041DD
:1060200010EBD37021FA04F642EB06015EEA430E50
:1060300008BF20EAD37070BDC4F10C04C4F1200580
:1060400000FA04F320FA05F001FA04F240EA020033
:1060500001F0004110EBD37041F100015EEA430E04
:1060600008BF20EAD37070BDC4F1200500FA05F224
:106070004EEA020E20FA04F301FA05F243EA0203A3
:1060800021FA04F001F0004121FA04F220EA0200B2
:1060900000EBD3705EEA430E08BF20EAD37070BDF8
:1060A00094F0000F0FD101F00046400041EB0101D8
:1060B00011F4801F08BF013CF7D041EA060195F0BA
:1060C000000F18BF704703F00046520043EB030374
:1060D00013F4801F08BF013DF7D043EA0603704761
:1060E00094EA0C0F0CEA135518BF95EA0C0F0CD06C
:1060F00050EA410618BF52EA4306D1D181EA0301B2
:1061000001F000414FF0000070BD50EA410606BFAB
:106110001046194652EA430619D094EA0C0F02D1F0
:1061200050EA013613D195EA0C0F05D152EA033635
:106130001CBF104619460AD181EA030101F0004153
:1061400041F0FE4141F470014FF0000070BD41F09C
:10615000FE4141F4780170BD70B54FF0FF0C4CF476
:10616000E06C1CEA11541DBF1CEA135594EA0C0F95
:1061700095EA0C0F00F0A7F8A4EB050481EA030EE2
:1061800052EA03354FEA013100F088804FEA0333C9
:106190004FF0805545EA131343EA12634FEA022297
:1061A00045EA111545EA10654FEA00260EF0004158
:1061B0009D4208BF964244F1FD0404F5407402D2AA
:1061C0005B084FEA3202B61A65EB03055B084FEA3B
:1061D00032024FF480104FF4002CB6EB020E75EB38
:1061E000030E22BFB61A754640EA0C005B084FEA60
:1061F0003202B6EB020E75EB030E22BFB61A7546DD
:1062000040EA5C005B084FEA3202B6EB020E75EB27
:10621000030E22BFB61A754640EA9C005B084FEA9F
:106220003202B6EB020E75EB030E22BFB61A7546AC
:1062300040EADC0055EA060E18D04FEA051545EA9B
:1062400016754FEA06164FEAC30343EA52734FEA44
:10625000C2025FEA1C1CC0D111F4801F0BD141EABD
:1062600000014FF000004FF0004CB6E711F4801F22
:1062700004BF01430020B4F1FD0C88BFBCF5E06F02
:106280003FF6AFAEB5EB030C04BFB6EB020C5FEA12
:10629000500C50F1000041EB045170BD0EF0004E67
:1062A0004EEA113114EB5C04C2BFD4EB0C0541EA99
:1062B000045170BD41F480114FF0000E013C90E696
:1062C00045EA060E8DE60CEA135594EA0C0F08BF5A
:1062D00095EA0C0F3FF43BAF94EA0C0F0AD150EA59
:1062E00001347FF434AF95EA0C0F7FF425AF1046EC
:1062F00019462CE795EA0C0F06D152EA03353FF414
:10630000FDAE1046194622E750EA410618BF52EA90
:1063100043067FF4C5AE50EA41047FF40DAF52EA64
:1063200043057FF4EBAE12E74FF0FF3C06E000BF01
:106330004FF0010C02E000BF4FF0010C4DF804CD0E
:106340004FEA410C7FEA6C5C4FEA430C18BF7FEACE
:106350006C5C1BD001B050EA410C0CBF52EA430CFC
:1063600091EA030F02BF90EA020F0020704710F17C
:10637000000F91EA030F58BF994208BF90422CBF0B
:10638000D8176FEAE37040F0010070474FEA410C04
:106390007FEA6C5C02D150EA013C07D14FEA430C22
:1063A0007FEA6C5CD6D152EA033CD3D05DF8040B93
:1063B000704700BF8446104662468C4619466346C5
:1063C00000E000BF01B5FFF7B7FF002848BF10F19C
:1063D000000F01BD4DF808EDFFF7F4FF0CBF0120E1
:1063E00000205DF808FB00BF4DF808EDFFF7EAFF5D
:1063F00034BF012000205DF808FB00BF4DF808ED18
:10640000FFF7E0FF94BF012000205DF808FB00BF0C
:106410004DF808EDFFF7CEFF94BF012000205DF896
:1064200008FB00BF4DF808EDFFF7C4FF34BF0120A3
:1064300000205DF808FB00BF4FEA410C7FEA6C5C6E
:1064400002D150EA013C0AD14FEA430C7FEA6C5C6E
:1064500002D152EA033C02D14FF0000070474FF0E6
:10646000010070474FEA410212F5001215D211D512
:106470006FF47873B3EB625212D94FEAC12343F041
:10648000004343EA505311F0004F23FA02F018BFC3
:10649000404270474FF00000704750EA013005D18C
:1064A00011F0004008BF6FF0004070474FF000004F
:1064B000704700BF4A0011D212F5001211D20DD55B
:1064C0006FF47873B3EB62520ED44FEAC12343F0FA
:1064D000004343EA505323FA02F070474FF00000A4
:1064E000704750EA013002D14FF0FF3070474FF053
:1064F000000070474FEA4102B2F1E04324BFB3F518
:10650000001CDCF1FE5C0DD901F0004C4FEAC0022A
:106510004CEA5070B2F1004F40EB830008BF20F00E
:106520000100704711F0804F21D113F13872BCBFC8
:1065300001F00040704741F480114FEA5252C2F11D
:106540001802C2F1200C10FA0CF320FA02F018BF66
:1065500040F001004FEAC1234FEAD32303FA0CFCB9
:1065600040EA0C0023FA02F34FEA4303CCE77FEA48
:10657000625307D150EA01331EBF4FF0FE4040F492
:106580004000704701F0004040F0FE4040F4000041
:10659000704700BF002301461A46184600F042B873
:1065A0000A44914200F1FF3300D1704710B511F851
:1065B000014B03F8014F9142F9D110BD024403464B
:1065C000934200D1704703F8011BF9E738B50D4B32
:1065D0001D68AB6B04467BB91820FEF745FC0A4AE0
:1065E0000A4BA863C0E90023094B83600B23838116
:1065F00001220023C0E90423AB6B00221C615A6115
:1066000038BD00BFD4E503200E33CDAB34126DE6A8
:10661000ECDE0500034613F8012B002AFBD1181A03
:10662000013870472DE9F843DFF8B8800646D8F8FE
:1066300000001F460D46914600F056F8254B1C6899
:1066400034B9254C1C60254B13B11B68C4F8883045
:1066500063681F2B07DDD8F8000000F047F84FF003
:10666000FF30BDE8F8834EB3D4F8880088B91C4BDE
:1066700023B9D8F8000000F038F8F0E74FF4847040
:10668000FEF7F2FB0028F4D00023C0E94033C4F841
:106690008800636840F8239001229A4000EB830150
:1066A000D0F800311343022EC0F80031C1F88070D9
:1066B00002BFD0F804311A43C0F804216368D8F847
:1066C00000005A1C0233626044F8235000F00EF8B8
:1066D0000020C6E7E4E7032058E70320000000009D
:1066E000694E0D0038E60320704770477047000080
:1066F00021400D005D400D0085400D0089400D00DA
:10670000000000002D003A2000496E76616C69643B
:106710002072656164696E67002F003A0000000016
:106720000000000000000000074F0D00FD4E0D00AE
:10673000F34E0D00E94E0D00DD4E0D00D14E0D0063
:1067400019590D0021590D00C54E0D00BD4E0D000B
:10675000B34E0D00A94E0D0051590D006E616E0033
:10676000696E66006F7666002E00617070002559B4
:106770002D256D2D25645425483A254D3A25532560
:106780007A0061736374696D6500000000000000A9
:1067900000000000DD540D00CD540D00CF540D005D
:1067A0000000000000000000B5550D001D560D0052
:1067B000F3550D006D4F0D00E5550D00B7550D005B
:1067C000C7550D0017560D00D7550D00AF550D00DC
:1067D0000000000000000000B9560D0027570D0012
:1067E000FF560D006D4F0D00CF560D00EB560D00FE
:1067F000DD560D00F9560D00BB560D00C1560D00BB
:106800000000000000000000E1570D002B580D00B3
:1068100003580D00E3570D000B580D0013580D00E1
:106820001B580D0023580D00000000000000000060
:10683000BB580D00B1580D00A7580D005D580D0054
:106840009B580D008F580D0019590D0021590D004E
:1068500083580D007B580D0071580D0067580D00CE
:1068600051590D000000000000000000D9580D0033
:10687000E3580D00ED580D00F7580D0001590D00BB
:106880000D590D0019590D0021590D0029590D0000
:1068900035590D003D590D0047590D0051590D0056
:1068A0000000000079430D00114F0D00394F0D001D
:1068B0005D4F0D00DD510D006D530D0089530D002E
:1068C000C5580D00255A0D00000000000000000012
:1068D00000000000000000000000000000000000B8
:0468E00000000000B4
:1068E4000000C07F0000C07F82670D00D8E5032050
:1068F4000000000000000000000000000000000094
:106904000000000000000000000000000000000083
:106914000000000000000000000000000000000073
:106924000000000000000000000000000000000063
:106934000000000000000000000000000000000053
:106944000000000000000000000000000000000043
:04695400E9E703204C
:10695800FFFFFFFF00000102030405060708090AFC
:106968000B0C0D0E0F101112131415161718191AF7
:086978001B1C1D1E1F2028003E
:0469800078563412FF
:04000003D0004020C9
:00000001FF
